{
  "_format": "hh-sol-artifact-1",
  "contractName": "AzulNFT",
  "sourceName": "contracts/AzulNFT.sol",
  "abi": [
    {
      "anonymous": false,
      "inputs": [
        {
          "indexed": false,
          "internalType": "address",
          "name": "previousAdmin",
          "type": "address"
        },
        {
          "indexed": false,
          "internalType": "address",
          "name": "newAdmin",
          "type": "address"
        }
      ],
      "name": "AdminChanged",
      "type": "event"
    },
    {
      "anonymous": false,
      "inputs": [
        {
          "indexed": true,
          "internalType": "address",
          "name": "owner",
          "type": "address"
        },
        {
          "indexed": true,
          "internalType": "address",
          "name": "approved",
          "type": "address"
        },
        {
          "indexed": true,
          "internalType": "uint256",
          "name": "tokenId",
          "type": "uint256"
        }
      ],
      "name": "Approval",
      "type": "event"
    },
    {
      "anonymous": false,
      "inputs": [
        {
          "indexed": true,
          "internalType": "address",
          "name": "owner",
          "type": "address"
        },
        {
          "indexed": true,
          "internalType": "address",
          "name": "operator",
          "type": "address"
        },
        {
          "indexed": false,
          "internalType": "bool",
          "name": "approved",
          "type": "bool"
        }
      ],
      "name": "ApprovalForAll",
      "type": "event"
    },
    {
      "anonymous": false,
      "inputs": [
        {
          "indexed": true,
          "internalType": "address",
          "name": "beacon",
          "type": "address"
        }
      ],
      "name": "BeaconUpgraded",
      "type": "event"
    },
    {
      "anonymous": false,
      "inputs": [
        {
          "indexed": true,
          "internalType": "address",
          "name": "previousOwner",
          "type": "address"
        },
        {
          "indexed": true,
          "internalType": "address",
          "name": "newOwner",
          "type": "address"
        }
      ],
      "name": "OwnershipTransferred",
      "type": "event"
    },
    {
      "anonymous": false,
      "inputs": [
        {
          "indexed": true,
          "internalType": "address",
          "name": "from",
          "type": "address"
        },
        {
          "indexed": true,
          "internalType": "address",
          "name": "to",
          "type": "address"
        },
        {
          "indexed": true,
          "internalType": "uint256",
          "name": "tokenId",
          "type": "uint256"
        }
      ],
      "name": "Transfer",
      "type": "event"
    },
    {
      "anonymous": false,
      "inputs": [
        {
          "indexed": true,
          "internalType": "address",
          "name": "implementation",
          "type": "address"
        }
      ],
      "name": "Upgraded",
      "type": "event"
    },
    {
      "inputs": [
        {
          "internalType": "address",
          "name": "to",
          "type": "address"
        },
        {
          "internalType": "uint256",
          "name": "tokenId",
          "type": "uint256"
        }
      ],
      "name": "approve",
      "outputs": [],
      "stateMutability": "nonpayable",
      "type": "function"
    },
    {
      "inputs": [
        {
          "internalType": "address",
          "name": "owner",
          "type": "address"
        }
      ],
      "name": "balanceOf",
      "outputs": [
        {
          "internalType": "uint256",
          "name": "",
          "type": "uint256"
        }
      ],
      "stateMutability": "view",
      "type": "function"
    },
    {
      "inputs": [
        {
          "internalType": "string",
          "name": "passcode",
          "type": "string"
        }
      ],
      "name": "claim",
      "outputs": [
        {
          "internalType": "uint256",
          "name": "",
          "type": "uint256"
        }
      ],
      "stateMutability": "nonpayable",
      "type": "function"
    },
    {
      "inputs": [
        {
          "internalType": "uint256",
          "name": "tokenId",
          "type": "uint256"
        }
      ],
      "name": "getApproved",
      "outputs": [
        {
          "internalType": "address",
          "name": "",
          "type": "address"
        }
      ],
      "stateMutability": "view",
      "type": "function"
    },
    {
      "inputs": [
        {
          "internalType": "contract IERC20Upgradeable",
          "name": "aurora_",
          "type": "address"
        }
      ],
      "name": "initialize",
      "outputs": [],
      "stateMutability": "nonpayable",
      "type": "function"
    },
    {
      "inputs": [
        {
          "internalType": "address",
          "name": "owner",
          "type": "address"
        },
        {
          "internalType": "address",
          "name": "operator",
          "type": "address"
        }
      ],
      "name": "isApprovedForAll",
      "outputs": [
        {
          "internalType": "bool",
          "name": "",
          "type": "bool"
        }
      ],
      "stateMutability": "view",
      "type": "function"
    },
    {
      "inputs": [],
      "name": "name",
      "outputs": [
        {
          "internalType": "string",
          "name": "",
          "type": "string"
        }
      ],
      "stateMutability": "view",
      "type": "function"
    },
    {
      "inputs": [],
      "name": "owner",
      "outputs": [
        {
          "internalType": "address",
          "name": "",
          "type": "address"
        }
      ],
      "stateMutability": "view",
      "type": "function"
    },
    {
      "inputs": [
        {
          "internalType": "uint256",
          "name": "tokenId",
          "type": "uint256"
        }
      ],
      "name": "ownerOf",
      "outputs": [
        {
          "internalType": "address",
          "name": "",
          "type": "address"
        }
      ],
      "stateMutability": "view",
      "type": "function"
    },
    {
      "inputs": [
        {
          "internalType": "bytes32",
          "name": "passcodeHash",
          "type": "bytes32"
        }
      ],
      "name": "rawDataFromPasscodeHash",
      "outputs": [
        {
          "components": [
            {
              "internalType": "bool",
              "name": "exist",
              "type": "bool"
            },
            {
              "internalType": "bool",
              "name": "claimed",
              "type": "bool"
            },
            {
              "internalType": "uint256",
              "name": "editionId",
              "type": "uint256"
            },
            {
              "internalType": "uint256",
              "name": "tokenId",
              "type": "uint256"
            },
            {
              "internalType": "uint256",
              "name": "editionTokenId",
              "type": "uint256"
            },
            {
              "internalType": "uint256",
              "name": "airdropAmount",
              "type": "uint256"
            },
            {
              "internalType": "address",
              "name": "originalOwner",
              "type": "address"
            }
          ],
          "internalType": "struct AzulNFT.NFTData",
          "name": "",
          "type": "tuple"
        }
      ],
      "stateMutability": "view",
      "type": "function"
    },
    {
      "inputs": [
        {
          "internalType": "uint256",
          "name": "tokenId",
          "type": "uint256"
        }
      ],
      "name": "rawDataFromTokenId",
      "outputs": [
        {
          "components": [
            {
              "internalType": "bool",
              "name": "exist",
              "type": "bool"
            },
            {
              "internalType": "bool",
              "name": "claimed",
              "type": "bool"
            },
            {
              "internalType": "uint256",
              "name": "editionId",
              "type": "uint256"
            },
            {
              "internalType": "uint256",
              "name": "tokenId",
              "type": "uint256"
            },
            {
              "internalType": "uint256",
              "name": "editionTokenId",
              "type": "uint256"
            },
            {
              "internalType": "uint256",
              "name": "airdropAmount",
              "type": "uint256"
            },
            {
              "internalType": "address",
              "name": "originalOwner",
              "type": "address"
            }
          ],
          "internalType": "struct AzulNFT.NFTData",
          "name": "",
          "type": "tuple"
        }
      ],
      "stateMutability": "view",
      "type": "function"
    },
    {
      "inputs": [],
      "name": "renounceOwnership",
      "outputs": [],
      "stateMutability": "nonpayable",
      "type": "function"
    },
    {
      "inputs": [
        {
          "internalType": "address",
          "name": "from",
          "type": "address"
        },
        {
          "internalType": "address",
          "name": "to",
          "type": "address"
        },
        {
          "internalType": "uint256",
          "name": "tokenId",
          "type": "uint256"
        }
      ],
      "name": "safeTransferFrom",
      "outputs": [],
      "stateMutability": "nonpayable",
      "type": "function"
    },
    {
      "inputs": [
        {
          "internalType": "address",
          "name": "from",
          "type": "address"
        },
        {
          "internalType": "address",
          "name": "to",
          "type": "address"
        },
        {
          "internalType": "uint256",
          "name": "tokenId",
          "type": "uint256"
        },
        {
          "internalType": "bytes",
          "name": "_data",
          "type": "bytes"
        }
      ],
      "name": "safeTransferFrom",
      "outputs": [],
      "stateMutability": "nonpayable",
      "type": "function"
    },
    {
      "inputs": [
        {
          "internalType": "address",
          "name": "operator",
          "type": "address"
        },
        {
          "internalType": "bool",
          "name": "approved",
          "type": "bool"
        }
      ],
      "name": "setApprovalForAll",
      "outputs": [],
      "stateMutability": "nonpayable",
      "type": "function"
    },
    {
      "inputs": [
        {
          "internalType": "uint256",
          "name": "editionId",
          "type": "uint256"
        },
        {
          "internalType": "string",
          "name": "name",
          "type": "string"
        },
        {
          "internalType": "string",
          "name": "imageUri",
          "type": "string"
        }
      ],
      "name": "setEditionMetadata",
      "outputs": [],
      "stateMutability": "nonpayable",
      "type": "function"
    },
    {
      "inputs": [
        {
          "internalType": "bytes4",
          "name": "interfaceId",
          "type": "bytes4"
        }
      ],
      "name": "supportsInterface",
      "outputs": [
        {
          "internalType": "bool",
          "name": "",
          "type": "bool"
        }
      ],
      "stateMutability": "view",
      "type": "function"
    },
    {
      "inputs": [],
      "name": "symbol",
      "outputs": [
        {
          "internalType": "string",
          "name": "",
          "type": "string"
        }
      ],
      "stateMutability": "view",
      "type": "function"
    },
    {
      "inputs": [
        {
          "internalType": "uint256",
          "name": "index",
          "type": "uint256"
        }
      ],
      "name": "tokenByIndex",
      "outputs": [
        {
          "internalType": "uint256",
          "name": "",
          "type": "uint256"
        }
      ],
      "stateMutability": "view",
      "type": "function"
    },
    {
      "inputs": [
        {
          "internalType": "address",
          "name": "owner",
          "type": "address"
        },
        {
          "internalType": "uint256",
          "name": "index",
          "type": "uint256"
        }
      ],
      "name": "tokenOfOwnerByIndex",
      "outputs": [
        {
          "internalType": "uint256",
          "name": "",
          "type": "uint256"
        }
      ],
      "stateMutability": "view",
      "type": "function"
    },
    {
      "inputs": [
        {
          "internalType": "uint256",
          "name": "tokenId",
          "type": "uint256"
        }
      ],
      "name": "tokenURI",
      "outputs": [
        {
          "internalType": "string",
          "name": "",
          "type": "string"
        }
      ],
      "stateMutability": "view",
      "type": "function"
    },
    {
      "inputs": [],
      "name": "totalSupply",
      "outputs": [
        {
          "internalType": "uint256",
          "name": "",
          "type": "uint256"
        }
      ],
      "stateMutability": "view",
      "type": "function"
    },
    {
      "inputs": [
        {
          "internalType": "address",
          "name": "from",
          "type": "address"
        },
        {
          "internalType": "address",
          "name": "to",
          "type": "address"
        },
        {
          "internalType": "uint256",
          "name": "tokenId",
          "type": "uint256"
        }
      ],
      "name": "transferFrom",
      "outputs": [],
      "stateMutability": "nonpayable",
      "type": "function"
    },
    {
      "inputs": [
        {
          "internalType": "address",
          "name": "newOwner",
          "type": "address"
        }
      ],
      "name": "transferOwnership",
      "outputs": [],
      "stateMutability": "nonpayable",
      "type": "function"
    },
    {
      "inputs": [
        {
          "internalType": "address",
          "name": "newImplementation",
          "type": "address"
        }
      ],
      "name": "upgradeTo",
      "outputs": [],
      "stateMutability": "nonpayable",
      "type": "function"
    },
    {
      "inputs": [
        {
          "internalType": "address",
          "name": "newImplementation",
          "type": "address"
        },
        {
          "internalType": "bytes",
          "name": "data",
          "type": "bytes"
        }
      ],
      "name": "upgradeToAndCall",
      "outputs": [],
      "stateMutability": "payable",
      "type": "function"
    },
    {
      "inputs": [
        {
          "internalType": "bytes32[]",
          "name": "passcodesHashed",
          "type": "bytes32[]"
        },
        {
          "internalType": "uint256",
          "name": "editionId",
          "type": "uint256"
        }
      ],
      "name": "uploadPasscodeBatch",
      "outputs": [],
      "stateMutability": "nonpayable",
      "type": "function"
    }
  ],
  "bytecode": "0x60a06040523060601b60805234801561001757600080fd5b5060805160601c61330e61004b600039600081816108d801528181610918015281816109bc01526109fc015261330e6000f3fe60806040526004361061013c5760003560e01c806301ffc9a71461014157806306fdde0314610176578063081812fc14610198578063095ea7b3146101c55780630c6d1f2a146101e757806318160ddd1461026557806323b872dd146102845780632f745c59146102a457806334325dab146102c45780633659cfe6146102e457806342842e0e146103045780634f1ef286146103245780634f6ccce7146103375780636352211e146103575780636e9a7d0b1461037757806370a0823114610397578063715018a6146103b75780638da5cb5b146103cc57806395d89b41146103e1578063a22cb465146103f6578063b27f82f014610416578063b88d4fde14610436578063c4d66de814610456578063c87b56dd14610476578063e985e9c514610496578063f2fde38b146104b6578063f3fe12c9146104d6575b600080fd5b34801561014d57600080fd5b5061016161015c366004612c82565b6104f6565b60405190151581526020015b60405180910390f35b34801561018257600080fd5b5061018b610521565b60405161016d9190612eb6565b3480156101a457600080fd5b506101b86101b3366004612c50565b6105b3565b60405161016d9190612e65565b3480156101d157600080fd5b506101e56101e0366004612b72565b610640565b005b3480156101f357600080fd5b50610207610202366004612c50565b610751565b60405161016d919081511515815260208083015115159082015260408083015190820152606080830151908201526080808301519082015260a0808301519082015260c0918201516001600160a01b03169181019190915260e00190565b34801561027157600080fd5b506099545b60405190815260200161016d565b34801561029057600080fd5b506101e561029f366004612a49565b610772565b3480156102b057600080fd5b506102766102bf366004612b72565b6107a3565b3480156102d057600080fd5b506101e56102df366004612cf0565b610839565b3480156102f057600080fd5b506101e56102ff3660046129f3565b6108cd565b34801561031057600080fd5b506101e561031f366004612a49565b610996565b6101e5610332366004612b23565b6109b1565b34801561034357600080fd5b50610276610352366004612c50565b610a6b565b34801561036357600080fd5b506101b8610372366004612c50565b610afe565b34801561038357600080fd5b506101e5610392366004612b9e565b610b75565b3480156103a357600080fd5b506102766103b23660046129f3565b610c9b565b3480156103c357600080fd5b506101e5610d22565b3480156103d857600080fd5b506101b8610d5d565b3480156103ed57600080fd5b5061018b610d6d565b34801561040257600080fd5b506101e5610411366004612af5565b610d7c565b34801561042257600080fd5b50610207610431366004612c50565b610d87565b34801561044257600080fd5b506101e5610451366004612a8a565b610e07565b34801561046257600080fd5b506101e56104713660046129f3565b610e39565b34801561048257600080fd5b5061018b610491366004612c50565b610f18565b3480156104a257600080fd5b506101616104b1366004612a10565b6111f5565b3480156104c257600080fd5b506101e56104d13660046129f3565b611223565b3480156104e257600080fd5b506102766104f1366004612cbc565b6112c0565b60006001600160e01b0319821663780e9d6360e01b148061051b575061051b8261170b565b92915050565b60606065805461053090613102565b80601f016020809104026020016040519081016040528092919081815260200182805461055c90613102565b80156105a95780601f1061057e576101008083540402835291602001916105a9565b820191906000526020600020905b81548152906001019060200180831161058c57829003601f168201915b5050505050905090565b60006105be8261175b565b6106245760405162461bcd60e51b815260206004820152602c60248201527f4552433732313a20617070726f76656420717565727920666f72206e6f6e657860448201526b34b9ba32b73a103a37b5b2b760a11b60648201526084015b60405180910390fd5b506000908152606960205260409020546001600160a01b031690565b600061064b82610afe565b9050806001600160a01b0316836001600160a01b031614156106b95760405162461bcd60e51b815260206004820152602160248201527f4552433732313a20617070726f76616c20746f2063757272656e74206f776e656044820152603960f91b606482015260840161061b565b336001600160a01b03821614806106d557506106d581336111f5565b6107425760405162461bcd60e51b815260206004820152603860248201527f4552433732313a20617070726f76652063616c6c6572206973206e6f74206f776044820152771b995c881b9bdc88185c1c1c9bdd995908199bdc88185b1b60421b606482015260840161061b565b61074c8383611778565b505050565b6107596128a1565b600082815261016a602052604090205461051b90610d87565b61077c33826117e6565b6107985760405162461bcd60e51b815260040161061b90613012565b61074c8383836118b0565b60006107ae83610c9b565b82106108105760405162461bcd60e51b815260206004820152602b60248201527f455243373231456e756d657261626c653a206f776e657220696e646578206f7560448201526a74206f6620626f756e647360a81b606482015260840161061b565b506001600160a01b03919091166000908152609760209081526040808320938352929052205490565b33610842610d5d565b6001600160a01b0316146108685760405162461bcd60e51b815260040161061b90612fdd565b81610161846003811061087d5761087d6131ae565b6003020160000190805190602001906108979291906128eb565b508061016184600381106108ad576108ad6131ae565b6003020160010190805190602001906108c79291906128eb565b50505050565b306001600160a01b037f00000000000000000000000000000000000000000000000000000000000000001614156109165760405162461bcd60e51b815260040161061b90612f1b565b7f00000000000000000000000000000000000000000000000000000000000000006001600160a01b0316610948611a49565b6001600160a01b03161461096e5760405162461bcd60e51b815260040161061b90612f55565b61097781611a65565b6040805160008082526020820190925261099391839190611a94565b50565b61074c83838360405180602001604052806000815250610e07565b306001600160a01b037f00000000000000000000000000000000000000000000000000000000000000001614156109fa5760405162461bcd60e51b815260040161061b90612f1b565b7f00000000000000000000000000000000000000000000000000000000000000006001600160a01b0316610a2c611a49565b6001600160a01b031614610a525760405162461bcd60e51b815260040161061b90612f55565b610a5b82611a65565b610a6782826001611a94565b5050565b6000610a7660995490565b8210610ad95760405162461bcd60e51b815260206004820152602c60248201527f455243373231456e756d657261626c653a20676c6f62616c20696e646578206f60448201526b7574206f6620626f756e647360a01b606482015260840161061b565b60998281548110610aec57610aec6131ae565b90600052602060002001549050919050565b6000818152606760205260408120546001600160a01b03168061051b5760405162461bcd60e51b815260206004820152602960248201527f4552433732313a206f776e657220717565727920666f72206e6f6e657869737460448201526832b73a103a37b5b2b760b91b606482015260840161061b565b33610b7e610d5d565b6001600160a01b031614610ba45760405162461bcd60e51b815260040161061b90612fdd565b60038110610bb157600080fd5b60005b825181101561074c576000838281518110610bd157610bd16131ae565b6020908102919091018101516040805160e081018252600180825260008286018181528385018a8152606085018381526080860184815260a0870185815260c0880186815299865261015f909a529690932094518554925161ffff1990931690151561ff00191617610100921515929092029190911784555191830191909155516002820155905160038201559151600483015551600590910180546001600160a01b0319166001600160a01b039092169190911790555080610c938161313d565b915050610bb4565b60006001600160a01b038216610d065760405162461bcd60e51b815260206004820152602a60248201527f4552433732313a2062616c616e636520717565727920666f7220746865207a65604482015269726f206164647265737360b01b606482015260840161061b565b506001600160a01b031660009081526068602052604090205490565b33610d2b610d5d565b6001600160a01b031614610d515760405162461bcd60e51b815260040161061b90612fdd565b610d5b6000611bdb565b565b61012d546001600160a01b031690565b60606066805461053090613102565b610a67338383611c2e565b610d8f6128a1565b50600090815261015f6020908152604091829020825160e081018452815460ff80821615158352610100909104161515928101929092526001810154928201929092526002820154606082015260038201546080820152600482015460a08201526005909101546001600160a01b031660c082015290565b610e1133836117e6565b610e2d5760405162461bcd60e51b815260040161061b90613012565b6108c784848484611cf9565b600054610100900460ff1680610e52575060005460ff16155b610e6e5760405162461bcd60e51b815260040161061b90612f8f565b600054610100900460ff16158015610e90576000805461ffff19166101011790555b61016b80546001600160a01b0319166001600160a01b038416179055604080518082018252600480825263105e9d5b60e21b6020808401919091528351808501909452908352631056955360e21b90830152610eeb91611d2c565b610ef3611db3565b610efb611e36565b610f03611e94565b8015610a67576000805461ff00191690555050565b6060610f238261175b565b610f875760405162461bcd60e51b815260206004820152602f60248201527f4552433732314d657461646174613a2055524920717565727920666f72206e6f60448201526e3732bc34b9ba32b73a103a37b5b2b760891b606482015260840161061b565b6000610f9283610751565b90506000610161826040015160038110610fae57610fae6131ae565b60030201604051806060016040529081600082018054610fcd90613102565b80601f0160208091040260200160405190810160405280929190818152602001828054610ff990613102565b80156110465780601f1061101b57610100808354040283529160200191611046565b820191906000526020600020905b81548152906001019060200180831161102957829003601f168201915b5050505050815260200160018201805461105f90613102565b80601f016020809104026020016040519081016040528092919081815260200182805461108b90613102565b80156110d85780601f106110ad576101008083540402835291602001916110d8565b820191906000526020600020905b8154815290600101906020018083116110bb57829003601f168201915b5050505050815260200160028201548152505090506040518060600160405280603e815260200161329b603e91396111138360600151611efb565b6040518060400160405280601b81526020017a129919161299193232b9b1b934b83a34b7b71299191299a092991960291b81525083600001516040518060400160405280600b81526020016a01022b234ba34b7b71016960ad1b81525061117d8760800151611efb565b60408051808201825260158152741299191612991934b6b0b3b29299191299a092991960591b60208083019190915289810151835180850185526006815265094c8c894dd160d21b8184015293516111dd9a999897969594919201612da4565b60405160208183030381529060405292505050919050565b6001600160a01b039182166000908152606a6020908152604080832093909416825291909152205460ff1690565b3361122c610d5d565b6001600160a01b0316146112525760405162461bcd60e51b815260040161061b90612fdd565b6001600160a01b0381166112b75760405162461bcd60e51b815260206004820152602660248201527f4f776e61626c653a206e6577206f776e657220697320746865207a65726f206160448201526564647265737360d01b606482015260840161061b565b61099381611bdb565b600080826040516020016112d49190612d88565b604051602081830303815290604052905060006002826040516112f79190612d88565b602060405180830381855afa158015611314573d6000803e3d6000fd5b5050506040513d601f19601f820116820180604052508101906113379190612c69565b600081815261015f6020908152604091829020825160e081018452815460ff8082161515808452610100909204161515938201939093526001820154938101939093526002810154606084015260038101546080840152600481015460a0840152600501546001600160a01b031660c0830152919250906113ed5760405162461bcd60e51b815260206004820152601060248201526f496e76616c69642070617373636f646560801b604482015260640161061b565b80602001511561143f5760405162461bcd60e51b815260206004820152601d60248201527f4e465420636c61696d656420666f7220746869732070617373636f6465000000604482015260640161061b565b6001602082015260408101516000906101619060038110611462576114626131ae565b6003020160405180606001604052908160008201805461148190613102565b80601f01602080910402602001604051908101604052809291908181526020018280546114ad90613102565b80156114fa5780601f106114cf576101008083540402835291602001916114fa565b820191906000526020600020905b8154815290600101906020018083116114dd57829003601f168201915b5050505050815260200160018201805461151390613102565b80601f016020809104026020016040519081016040528092919081815260200182805461153f90613102565b801561158c5780601f106115615761010080835404028352916020019161158c565b820191906000526020600020905b81548152906001019060200180831161156f57829003601f168201915b505050505081526020016002820154815250509050600161016060008282546115b59190613093565b9091555050610160546060830152604081018051600191906115d8908390613093565b90525060408181015160808401908152600060a085018181523360c0870190815287835261015f602090815285842088518154928a015161ffff1990931690151561ff001916176101009215159290920291909117815594870151600186018190556060880151600287015593516003808701919091559151600486015551600590940180546001600160a01b0319166001600160a01b039095169490941790935591839161016191811061168f5761168f6131ae565b6003020160008201518160000190805190602001906116af9291906128eb565b5060208281015180516116c892600185019201906128eb565b506040918201516002909101556060840151600090815261016a602052208490556116fd6116f33390565b8460600151612076565b505060600151949350505050565b60006001600160e01b031982166380ac58cd60e01b148061173c57506001600160e01b03198216635b5e139f60e01b145b8061051b57506301ffc9a760e01b6001600160e01b031983161461051b565b6000908152606760205260409020546001600160a01b0316151590565b600081815260696020526040902080546001600160a01b0319166001600160a01b03841690811790915581906117ad82610afe565b6001600160a01b03167f8c5be1e5ebec7d5bd14f71427d1e84f3dd0314c0f7b2291e5b200ac8c7c3b92560405160405180910390a45050565b60006117f18261175b565b6118525760405162461bcd60e51b815260206004820152602c60248201527f4552433732313a206f70657261746f7220717565727920666f72206e6f6e657860448201526b34b9ba32b73a103a37b5b2b760a11b606482015260840161061b565b600061185d83610afe565b9050806001600160a01b0316846001600160a01b031614806118985750836001600160a01b031661188d846105b3565b6001600160a01b0316145b806118a857506118a881856111f5565b949350505050565b826001600160a01b03166118c382610afe565b6001600160a01b03161461192b5760405162461bcd60e51b815260206004820152602960248201527f4552433732313a207472616e73666572206f6620746f6b656e2074686174206960448201526839903737ba1037bbb760b91b606482015260840161061b565b6001600160a01b03821661198d5760405162461bcd60e51b8152602060048201526024808201527f4552433732313a207472616e7366657220746f20746865207a65726f206164646044820152637265737360e01b606482015260840161061b565b611998838383612090565b6119a3600082611778565b6001600160a01b03831660009081526068602052604081208054600192906119cc9084906130bf565b90915550506001600160a01b03821660009081526068602052604081208054600192906119fa908490613093565b909155505060008181526067602052604080822080546001600160a01b0319166001600160a01b03868116918217909255915184939187169160008051602061327b83398151915291a4505050565b600080516020613234833981519152546001600160a01b031690565b33611a6e610d5d565b6001600160a01b0316146109935760405162461bcd60e51b815260040161061b90612fdd565b6000611a9e611a49565b9050611aa984612148565b600083511180611ab65750815b15611ac757611ac584846121db565b505b7f4910fdfa16fed3260ed0e7147f7cc6da11a60208b5b9406d12a635614ffd9143805460ff16611bd457805460ff19166001178155604051611b42908690611b13908590602401612e65565b60408051601f198184030181529190526020810180516001600160e01b0316631b2ce7f360e11b1790526121db565b50805460ff19168155611b53611a49565b6001600160a01b0316826001600160a01b031614611bcb5760405162461bcd60e51b815260206004820152602f60248201527f45524331393637557067726164653a207570677261646520627265616b73206660448201526e75727468657220757067726164657360881b606482015260840161061b565b611bd4856122c6565b5050505050565b61012d80546001600160a01b038381166001600160a01b0319831681179093556040519116919082907f8be0079c531659141344cd1fd0a4f28419497f9722a3daafe3b4186f6b6457e090600090a35050565b816001600160a01b0316836001600160a01b03161415611c8c5760405162461bcd60e51b815260206004820152601960248201527822a9219b99189d1030b8383937bb32903a379031b0b63632b960391b604482015260640161061b565b6001600160a01b038381166000818152606a6020908152604080832094871680845294825291829020805460ff191686151590811790915591519182527f17307eab39ab6107e8899845ad3d59bd9653f200f220920489ca2b5937696c31910160405180910390a3505050565b611d048484846118b0565b611d1084848484612306565b6108c75760405162461bcd60e51b815260040161061b90612ec9565b600054610100900460ff1680611d45575060005460ff16155b611d615760405162461bcd60e51b815260040161061b90612f8f565b600054610100900460ff16158015611d83576000805461ffff19166101011790555b611d8b612413565b611d93612413565b611d9d838361247d565b801561074c576000805461ff0019169055505050565b600054610100900460ff1680611dcc575060005460ff16155b611de85760405162461bcd60e51b815260040161061b90612f8f565b600054610100900460ff16158015611e0a576000805461ffff19166101011790555b611e12612413565b611e1a612413565b611e22612413565b8015610993576000805461ff001916905550565b600054610100900460ff1680611e4f575060005460ff16155b611e6b5760405162461bcd60e51b815260040161061b90612f8f565b600054610100900460ff16158015611e12576000805461ffff1916610101179055611e1a612413565b600054610100900460ff1680611ead575060005460ff16155b611ec95760405162461bcd60e51b815260040161061b90612f8f565b600054610100900460ff16158015611eeb576000805461ffff19166101011790555b611ef3612413565b611e22612512565b606081611f1f5750506040805180820190915260018152600360fc1b602082015290565b60408051606480825260a0820190925260009160208201818036833701905050905060005b8315611fae576000611f57600a86613158565b9050611f64600a866130ab565b9450611f71816030613093565b60f81b8383611f7f8161313d565b945081518110611f9157611f916131ae565b60200101906001600160f81b031916908160001a90535050611f44565b6000816001600160401b03811115611fc857611fc86131c4565b6040519080825280601f01601f191660200182016040528015611ff2576020820181803683370190505b50905060005b8281101561206d5783600161200d83866130bf565b61201791906130bf565b81518110612027576120276131ae565b602001015160f81c60f81b828281518110612044576120446131ae565b60200101906001600160f81b031916908160001a905350806120658161313d565b915050611ff8565b50949350505050565b610a67828260405180602001604052806000815250612572565b6001600160a01b0383166120eb576120e681609980546000838152609a60205260408120829055600182018355919091527f72a152ddfb8e864297c917af52ea6c1c68aead0fee1a62673fcc7e0c94979d000155565b61210e565b816001600160a01b0316836001600160a01b03161461210e5761210e83826125a5565b6001600160a01b0382166121255761074c81612642565b826001600160a01b0316826001600160a01b03161461074c5761074c82826126f1565b803b6121ac5760405162461bcd60e51b815260206004820152602d60248201527f455243313936373a206e657720696d706c656d656e746174696f6e206973206e60448201526c1bdd08184818dbdb9d1c9858dd609a1b606482015260840161061b565b60008051602061323483398151915280546001600160a01b0319166001600160a01b0392909216919091179055565b6060823b61223a5760405162461bcd60e51b815260206004820152602660248201527f416464726573733a2064656c65676174652063616c6c20746f206e6f6e2d636f6044820152651b9d1c9858dd60d21b606482015260840161061b565b600080846001600160a01b0316846040516122559190612d88565b600060405180830381855af49150503d8060008114612290576040519150601f19603f3d011682016040523d82523d6000602084013e612295565b606091505b50915091506122bd828260405180606001604052806027815260200161325460279139612735565b95945050505050565b6122cf81612148565b6040516001600160a01b038216907fbc7cd75a20ee27fd9adebab32041f755214dbc6bffa90cc0225b39da2e5c2d3b90600090a250565b60006001600160a01b0384163b1561240857604051630a85bd0160e11b81526001600160a01b0385169063150b7a029061234a903390899088908890600401612e79565b602060405180830381600087803b15801561236457600080fd5b505af1925050508015612394575060408051601f3d908101601f1916820190925261239191810190612c9f565b60015b6123ee573d8080156123c2576040519150601f19603f3d011682016040523d82523d6000602084013e6123c7565b606091505b5080516123e65760405162461bcd60e51b815260040161061b90612ec9565b805181602001fd5b6001600160e01b031916630a85bd0160e11b1490506118a8565b506001949350505050565b600054610100900460ff168061242c575060005460ff16155b6124485760405162461bcd60e51b815260040161061b90612f8f565b600054610100900460ff16158015611e22576000805461ffff19166101011790558015610993576000805461ff001916905550565b600054610100900460ff1680612496575060005460ff16155b6124b25760405162461bcd60e51b815260040161061b90612f8f565b600054610100900460ff161580156124d4576000805461ffff19166101011790555b82516124e79060659060208601906128eb565b5081516124fb9060669060208501906128eb565b50801561074c576000805461ff0019169055505050565b600054610100900460ff168061252b575060005460ff16155b6125475760405162461bcd60e51b815260040161061b90612f8f565b600054610100900460ff16158015612569576000805461ffff19166101011790555b611e2233611bdb565b61257c8383612775565b6125896000848484612306565b61074c5760405162461bcd60e51b815260040161061b90612ec9565b600060016125b284610c9b565b6125bc91906130bf565b60008381526098602052604090205490915080821461260f576001600160a01b03841660009081526097602090815260408083208584528252808320548484528184208190558352609890915290208190555b5060009182526098602090815260408084208490556001600160a01b039094168352609781528383209183525290812055565b609954600090612654906001906130bf565b6000838152609a60205260408120546099805493945090928490811061267c5761267c6131ae565b90600052602060002001549050806099838154811061269d5761269d6131ae565b6000918252602080832090910192909255828152609a909152604080822084905585825281205560998054806126d5576126d5613198565b6001900381819060005260206000200160009055905550505050565b60006126fc83610c9b565b6001600160a01b039093166000908152609760209081526040808320868452825280832085905593825260989052919091209190915550565b6060831561274457508161276e565b8251156127545782518084602001fd5b8160405162461bcd60e51b815260040161061b9190612eb6565b9392505050565b6001600160a01b0382166127cb5760405162461bcd60e51b815260206004820181905260248201527f4552433732313a206d696e7420746f20746865207a65726f2061646472657373604482015260640161061b565b6127d48161175b565b156128205760405162461bcd60e51b815260206004820152601c60248201527b115490cdcc8c4e881d1bdad95b88185b1c9958591e481b5a5b9d195960221b604482015260640161061b565b61282c60008383612090565b6001600160a01b0382166000908152606860205260408120805460019290612855908490613093565b909155505060008181526067602052604080822080546001600160a01b0319166001600160a01b038616908117909155905183929060008051602061327b833981519152908290a45050565b6040518060e001604052806000151581526020016000151581526020016000815260200160008152602001600081526020016000815260200160006001600160a01b031681525090565b8280546128f790613102565b90600052602060002090601f016020900481019282612919576000855561295f565b82601f1061293257805160ff191683800117855561295f565b8280016001018555821561295f579182015b8281111561295f578251825591602001919060010190612944565b5061296b92915061296f565b5090565b5b8082111561296b5760008155600101612970565b600082601f83011261299557600080fd5b81356001600160401b038111156129ae576129ae6131c4565b6129c1601f8201601f1916602001613063565b8181528460208386010111156129d657600080fd5b816020850160208301376000918101602001919091529392505050565b600060208284031215612a0557600080fd5b813561276e816131da565b60008060408385031215612a2357600080fd5b8235612a2e816131da565b91506020830135612a3e816131da565b809150509250929050565b600080600060608486031215612a5e57600080fd5b8335612a69816131da565b92506020840135612a79816131da565b929592945050506040919091013590565b60008060008060808587031215612aa057600080fd5b8435612aab816131da565b93506020850135612abb816131da565b92506040850135915060608501356001600160401b03811115612add57600080fd5b612ae987828801612984565b91505092959194509250565b60008060408385031215612b0857600080fd5b8235612b13816131da565b91506020830135612a3e816131ef565b60008060408385031215612b3657600080fd5b8235612b41816131da565b915060208301356001600160401b03811115612b5c57600080fd5b612b6885828601612984565b9150509250929050565b60008060408385031215612b8557600080fd5b8235612b90816131da565b946020939093013593505050565b60008060408385031215612bb157600080fd5b82356001600160401b0380821115612bc857600080fd5b818501915085601f830112612bdc57600080fd5b8135602082821115612bf057612bf06131c4565b8160051b9250612c01818401613063565b8281528181019085830185870184018b1015612c1c57600080fd5b600096505b84871015612c3f578035835260019690960195918301918301612c21565b509997909101359750505050505050565b600060208284031215612c6257600080fd5b5035919050565b600060208284031215612c7b57600080fd5b5051919050565b600060208284031215612c9457600080fd5b813561276e816131fd565b600060208284031215612cb157600080fd5b815161276e816131fd565b600060208284031215612cce57600080fd5b81356001600160401b03811115612ce457600080fd5b6118a884828501612984565b600080600060608486031215612d0557600080fd5b8335925060208401356001600160401b0380821115612d2357600080fd5b612d2f87838801612984565b93506040860135915080821115612d4557600080fd5b50612d5286828701612984565b9150509250925092565b60008151808452612d748160208601602086016130d6565b601f01601f19169290920160200192915050565b60008251612d9a8184602087016130d6565b9190910192915050565b60008a51612db6818460208f016130d6565b8a51612dc88183860160208f016130d6565b8a519184010190612ddd818360208e016130d6565b8951612def8183850160208e016130d6565b8951929091010190612e05818360208c016130d6565b8751612e178183850160208c016130d6565b8751929091010190612e2d818360208a016130d6565b8551612e3f8183850160208a016130d6565b8551929091010190612e558183602088016130d6565b019b9a5050505050505050505050565b6001600160a01b0391909116815260200190565b6001600160a01b0385811682528416602082015260408101839052608060608201819052600090612eac90830184612d5c565b9695505050505050565b60208152600061276e6020830184612d5c565b60208082526032908201527f4552433732313a207472616e7366657220746f206e6f6e20455243373231526560408201527131b2b4bb32b91034b6b83632b6b2b73a32b960711b606082015260800190565b6020808252602c9082015260008051602061321483398151915260408201526b19195b1959d85d1958d85b1b60a21b606082015260800190565b6020808252602c9082015260008051602061321483398151915260408201526b6163746976652070726f787960a01b606082015260800190565b6020808252602e908201527f496e697469616c697a61626c653a20636f6e747261637420697320616c72656160408201526d191e481a5b9a5d1a585b1a5e995960921b606082015260800190565b6020808252818101527f4f776e61626c653a2063616c6c6572206973206e6f7420746865206f776e6572604082015260600190565b60208082526031908201527f4552433732313a207472616e736665722063616c6c6572206973206e6f74206f6040820152701ddb995c881b9bdc88185c1c1c9bdd9959607a1b606082015260800190565b604051601f8201601f191681016001600160401b038111828210171561308b5761308b6131c4565b604052919050565b600082198211156130a6576130a661316c565b500190565b6000826130ba576130ba613182565b500490565b6000828210156130d1576130d161316c565b500390565b60005b838110156130f15781810151838201526020016130d9565b838111156108c75750506000910152565b600181811c9082168061311657607f821691505b6020821081141561313757634e487b7160e01b600052602260045260246000fd5b50919050565b60006000198214156131515761315161316c565b5060010190565b60008261316757613167613182565b500690565b634e487b7160e01b600052601160045260246000fd5b634e487b7160e01b600052601260045260246000fd5b634e487b7160e01b600052603160045260246000fd5b634e487b7160e01b600052603260045260246000fd5b634e487b7160e01b600052604160045260246000fd5b6001600160a01b038116811461099357600080fd5b801515811461099357600080fd5b6001600160e01b03198116811461099357600080fdfe46756e6374696f6e206d7573742062652063616c6c6564207468726f75676820360894a13ba1a3210667c828492db98dca3e2076cc3735a920a3ca505d382bbc416464726573733a206c6f772d6c6576656c2064656c65676174652063616c6c206661696c6564ddf252ad1be2c89b69c2b068fc378daa952ba7f163c4a11628f55a4df523b3ef646174613a6170706c69636174696f6e2f6a736f6e3b636861727365743d5554462d382c2537422532326e616d65253232253341253232415a554c202d20a2646970667358221220b79616744366543e566cb5d1f6b7d76160d61212894f9c062242c298ce0b590864736f6c63430008070033",
  "linkReferences": {},
  "deployedLinkReferences": {}
}